S015000053656E736F72446973706C61792E73726563BF
S11300000C942A000C9447000C9447000C9447006D
S11300100C9447000C9447000C9447000C94470040
S11300200C9447000C9447000C9447000C94470030
S11300300C9447000C9447000C9447000C94470020
S11300400C9447000C9447000C9447000C94470010
S11300500C94470011241FBECFE5D8E0DEBFCDBF0E
S113006010E0A0E6B0E0E0E6F8E202C005900D92F0
S1130070A43AB107D9F720E0A4EAB0E001C01D9288
S1130080AA3BB207E1F70E945A0D0C942E140C946B
S11300900000FC01892B81F083819481892B71F00C
S11300A085819681892B61F081E027813085232B1E
S11300B009F080E0819508958FEF08958FEF0895FA
S11300C08FEF0895CF92DF92EF92FF921F93CF9319
S11300D0DF93182F7B016A01E901C9010E944900DD
S11300E081110DC08A81813009F01068EB81FC8197
S11300F09601A701612F8981099581118CEFDF9108
S1130100CF911F91FF90EF90DF90CF900895BF9211
S1130110CF92DF92EF92FF920F931F93CF93DF93CF
S1130120CDB7DEB764970FB6F894DEBF0FBECDBF70
S11301306C018B017901B42E8AE0841720F40F2E10
S1130140FAE0BF2EF02DC7010E944900811153C06F
S1130150C114D10409F451C00115110509F44FC0AB
S1130160BB2009F44EC0D8018C918983F7018281A8
S1130170813009F448C0F6012FEF2B0D30E02F5FDA
S11301803F4F2C0D3D1D80818F778193E217F3073C
S1130190D1F7F1E0FB15D8F496012F5F3F4FFE0134
S11301A031960F5F1F4F81E0D9019D919D0191838D
S11301B0D8019D918D0192838F5F32968B15A0F3A8
S11301C02B2D30E0220F331F2150310902C02B2D7B
S11301D030E0D7011596ED91FC911697AE014F5F73
S11301E05F4FD6016C91D70111968C9109958823A4
S11301F071F08CEF0CC08FEF0AC08FEF08C08FEF47
S113020006C08DEF04C0B1E0BB1530F2E0CF6496B8
S11302100FB6F894DEBF0FBECDBFDF91CF911F9113
S11302200F91FF90EF90DF90CF90BF900895CF9201
S1130230DF92EF92FF921F93CF93DF9300D01F9230
S1130240CDB7DEB7182F6B017A0182FF27C082EF8A
S11302508983FB01828187708B839A0141E0BE010F
S11302606D5F7F4FCE0101960E948700811117C0F8
S113027084EF8983970141E050E0BE016E5F7F4FB8
S11302800E94620081110BC0970141E0BE016E5FC4
S11302907F4FCE0101960E94870001C081E0912F1B
S11302A0937071F184EF8A83970141E050E0BE01BD
S11302B06F5F7F4F0E946200811122C010FF0AC04D
S11302C0F6018081880F880F982F9C718981837E25
S11302D0892B898311FF0BC08981282F2F71F60187
S11302E09181F0E29F9FC0011124822B89839701A1
S11302F041E0BE016F5F7F4FCE0102960E948700EE
S11303000F900F900F90DF91CF911F91FF90EF907E
S1130310DF90CF900895CF92DF92FF920F931F93B7
S1130320CF93DF9300D0CDB7DEB7F82E6B018A01EF
S113033085EF89839A0141E050E0BE016E5F7F4FF3
S11303400E946200811122C0F3FE0AC0F60183817B
S1130350880F880F982F9C718A81837E892B8A83CA
S1130360F4FE0BC08A81282F2F71F6019481F0E2EC
S11303709F9FC0011124822B8A83980141E0BE0112
S11303806E5F7F4FCE0101960E9487000F900F9001
S1130390DF91CF911F910F91FF90DF90CF9008953F
S11303A00F931F93CF93DF938C01EB01CB010E943A
S11303B0490081110BC09E0141E050E0B80184EF77
S11303C00E946200F801908193709083DF91CF9135
S11303D01F910F910895EF92FF921F93CF93DF9394
S11303E000D0CDB7DEB77C0180EE898386EB8A83AB
S11303F0C7010E944900182F811114C0970141E0E0
S1130400BE016E5F7F4FCE0101960E948700182FB8
S1130410D7011796ED91FC91189762E070E080E0A7
S113042090E00995812F0F900F90DF91CF911F914C
S1130430FF90EF900895EF92FF921F93CF93DF9375
S1130440CDB7DEB76B970FB6F894DEBF0FBECDBF46
S11304507C0119820E9449008111E7C015E09701CF
S113046041E050E0BE016F5F7F4F80ED0E9462006B
S11304708111C9C08981803609F0C5C0D7018C9328
S1130480C7010E94EB018111CDC0BE016E5F7F4F99
S11304908AE1FB0111928A95E9F797014AE150E05C
S11304A088E80E9462008111BDC08B8190E0982F82
S11304B088272A81822BD7011A969C938E931997A9
S11304C08D8190E0982F88272C81822B1C969C93F9
S11304D08E931B978F8190E0982F88272E81822BF3
S11304E01E969C938E931D97898590E0982F88275C
S11304F02885822B50969C938E931F978B8590E032
S1130500982F88272A85822B52969C938E935197F5
S11305108D8590E0982F88272C85822B54969C9368
S11305208E9353978F8590E0982F88272E85822B62
S113053056969C938E935597898990E0982F882797
S11305402889822B58969C938E9357978B8990E099
S1130550982F88272A89822B5A969C938E93599791
S11305608D8990E0982F88272C89822B5C969C9308
S11305708E935B978F8990E0982F88272E89822B02
S11305805E969C938E935D97898D90E0982F882733
S1130590288D822B90969C938E935F978B8D91964A
S11305A08C93970147E050E0BE016E5F7F4F81EE70
S11305B00E946200811136C02B8130E0322F222745
S11305C09A81292BF70133A322A39C8194A39E81B2
S11305D02D81F0E12F0290011124492F4F70242B1B
S11305E0D70196963C932E9395972F81B0E12B02D9
S11305F09001112492959F70292BF70130A727A30E
S1130600988591A70FC0D7011796ED91FC91189783
S113061061E070E080E090E00995115009F01FCF8F
S11306208EEF03C0111101C08EEF6B960FB6F894D4
S1130630DEBF0FBECDBFDF91CF911F91FF90EF9032
S113064008950F931F93CF93DF93CDB7DEB7299708
S11306500FB6F894DEBF0FBECDBF8C019C0144E001
S113066050E0BE016F5F7F4F82EF0E9462008111F4
S113067032C0898187708F832B81822F8C7190E0A7
S113068095958795959587958D83229526952770C1
S11306902E832C81822F8C7190E09595879595956A
S11306A0879588872295269527702987C8010E94F7
S11306B0EB01811110C0A801BE016B5F7F4F8FE178
S11306C00E941701811107C0A801BE016B5F7F4F13
S11306D08FE10E948B0129960FB6F894DEBF0FBEFE
S11306E0CDBFDF91CF911F910F910895EF92FF92AB
S11306F00F931F93CF93DF931F92CDB7DEB7082FCD
S11307007B01CB010E944900182F81112BC0B70136
S1130710CE0101960E94D001182F811123C0898136
S1130720882329F0C7010E942103811118C0802F5A
S1130730877049F0A701B701625D7F4F802F0E9447
S1130740170181110EC0802F887161F0B701625DBD
S11307507F4FA701802F0E948B01182F03C0182FF1
S113076001C0182F812F0F90DF91CF911F910F910E
S1130770FF90EF900895FF920F931F93CF93DF9311
S113078000D01F92CDB7DEB7F82E8B01CB010E94AB
S1130790490081112BC0B801CE0101960E94D001FD
S11307A0811124C08981882329F0C8010E94210372
S11307B081111CC084EF8B83980141E050E0BE019D
S11307C06E5F7F4F0E946200811110C09A819C7FEE
S11307D08F2D8370F92EF82AFA82980141E0BE0128
S11307E06E5F7F4FCE0103960E9487000F900F909B
S11307F00F90DF91CF911F910F91FF9008950F9368
S11308001F93FC01DB01408150E060E070E08A014D
S11308109B010F2EFCE0000F111F221F331FFA95BE
S1130820D1F7F02D8181482F50E060E070E0440F53
S1130830551F661F771F440F551F661F771F440FF0
S1130840551F661F771F440F551F661F771F402BC8
S1130850512B622B732B828182958F70482B4D9381
S11308605D936D937C931397438150E060E070E057
S11308708A019B010F2EFCE0000F111F221F331F62
S1130880FA95D1F7F02D8481482F50E060E070E0B4
S1130890440F551F661F771F440F551F661F771F90
S11308A0440F551F661F771F440F551F661F771F80
S11308B0402B512B622B732B858182958F70482B93
S11308C014964D935D936D937C931797468150E0F6
S11308D060E070E0762F652F542F44278781482BE2
S11308E018964D935D936D937C931B971F910F9175
S11308F008952F923F924F925F926F927F928F92C0
S11309009F92AF92BF92CF92DF92EF92FF920F939A
S11309101F93CF93DF93CDB7DEB7A3970FB6F894A9
S1130920DEBF0FBECDBF382E8B01FA013A83298377
S11309306115710509F492C5309709F491C5211523
S1130940310509F48FC5148215821682178210822C
S11309501182128213821086118612861386877082
S113096009F4CDC0DB011496CD90DD90ED90FC90A0
S11309701797D9014D905C90B701A601689412F8BD
S113098076956795579547951694D1F7612C712CF8
S1130990D301C201880F991FAA1FBB1F9A01AB0183
S11309A0281B390B4A0B5B0BA981BA8112968D91D6
S11309B09C911397DC010E94B50F4B015C01D70198
S11309C0C601689413F8B695A795979587951694DC
S11309D0D1F7BC01CD0164197509860997099B01FA
S11309E0AC010E94450F6B017C01992334F4BFEFE5
S11309F0CB0EBFE0DB1EE11CF11CA7019601012E0A
S1130A001CE055954795379527951A95D1F7102DE4
S1130A10A981BA8114968D919C911597DC010E944D
S1130A20B50F75016401BB2034F4BFEFCB0EB7E002
S1130A30DB1EE11CF11C0B2EBBE0F594E794D7946C
S1130A40C794BA95D1F7B02D4B015C01992334F4C6
S1130A502FEF820E2FE3921EA11CB11CB501A4013D
S1130A60032E3EE075956795579547953A95D1F7CE
S1130A70302DC40ED51EE61EF71EA981BA819196AB
S1130A80CD92DD92ED92FC929497B701A601440FAA
S1130A90551F661F771F440F551F661F771FD70109
S1130AA0C601840F951FA61FB71F80589F4FAF4FD5
S1130AB0BF4FAC01BD0122F441505F4F6F4F7F4FD8
S1130AC0BB2777FDBA95A72F962F852F853321E273
S1130AD09207A105B10524F084E391E2A0E0B0E01F
S1130AE0803630EF93073FEFA307B30724F480E683
S1130AF090EFAFEFBFEF84839583A683B7834981DB
S1130B005A815BA34AA3FA8BE98B1F8B0E8B3D861C
S1130B1030FE52C3FA0181A192A1A3A1B4A16C0138
S1130B207D01FF0CCC08DC2C7601282F392F4A2FAD
S1130B305B2F6C2D7C2D8C2D9C2D345F41405109F5
S1130B40610971098109910929833B874C87598778
S1130B506A877E878F87988BA22EB32EC42ED52EBC
S1130B60E62EF72E082F192F0E94BD0F2B8B3C8BDE
S1130B704D8B588F698F7A8F8B8F9C8FAAA1BBA1C5
S1130B8019963C91199718962C91932F990F990BBC
S1130B90492F592F692F792F892F0E94BD0F0CE0FF
S1130BA00E94ED10522E632E742E5D8F6E8F7F8FF8
S1130BB088A399A3EAA1FBA133852285932F990FDA
S1130BC0990BAB88BC88CD88D88CE98CFA8C0B8DBA
S1130BD01C8D492F592F692F792F892F0E94BD0F02
S1130BE0422EA32EB42EC52ED62EE72E282E392E15
S1130BF0A0E00E94421184F421503F4F4F4F5F4FB9
S1130C006F4F7F4F8F4F9F4F422EA32EB42EC52E72
S1130C10D62EE72E282E392E242D3A2D4B2D5C2D41
S1130C206D2D7E2D822D932D08E00E940611A52C9A
S1130C30B62CC72CDD8CEE8CFF8C08A119A10E9468
S1130C40241170588F4F9F4FAAA1BBA11696AD9047
S1130C50BC9017971501B32CC12CD12CE12CF12C8D
S1130C6000E010E00E94BD0F922EA32EB42EC52EDC
S1130C70D62EE72E782E892EA0E00E94421184F40D
S1130C8021503109410951096E4F7F4F8F4F9F4FBA
S1130C90922EA32EB42EC52ED62EE72E782E892E74
S1130CA0292D3A2D4B2D5C2D6D2D7E2D872D982DC4
S1130CB001E20E940611622E732E242E352E862EFA
S1130CC0972E482E592EA0E00E94421109F465C2C5
S1130CD0EAA1FBA131892089932F990F990BAB8845
S1130CE0BC88CD88D88CE98CFA8C0B8D1C8D492F4F
S1130CF0592F692F792F892F0E94BD0F2B8B3C8B85
S1130D004D8B588F698F7A8F8B8F9C8FAAA1BBA133
S1130D101F963C911F971E962C91932F990F990B18
S1130D20A980BB84CC84D984EA84FE840F85188985
S1130D30492F592F692F792F892F0E94BD0F01E167
S1130D400E94ED10AB88BC88CD88D88CE98CFA8CD5
S1130D500B8D1C8D0E942411A22EB32EC42ED52ED1
S1130D60E62EF72E8B879E87EE89FF89408151817D
S1130D706281738180E090E0A0E1B0E0841B950B78
S1130D80A60BB70B8C019D0140E050E0BA011A8319
S1130D902B833C834D835E836F837887282F312F89
S1130DA04B815C8160E070E080E090E00FE10E94A4
S1130DB0ED1029833C8749875A87B62FA72F8F8741
S1130DC0988BEAA1FBA135852485932F990F990B64
S1130DD0492F592F692F792F892F03E20E94ED1093
S1130DE00B851E850E942411A22EB32EC42ED52E4F
S1130DF0E62EF72E082F192F29813C8549855A851F
S1130E006B2F7A2F8F8598890E9439110F2EF5E365
S1130E10AF2EF02D0F2EFCE0BF2EF02DC12CD12CC7
S1130E20E12CF12C00E010E00E94BD0FA62CB72CA1
S1130E30C22CD32CE82CF92C042D152D0E9418104B
S1130E40322E232E49835B876C87472E582E692EBA
S1130E50122FD32EE42EB52FF62FE72FF82E092FBD
S1130E60A0E00E94421184F42150304E4F4F5F4F56
S1130E706F4F7F4F8F4F9F4F122FD32EE42EB52FDE
S1130E80F62FE72FF82E092F212F3D2D4E2D5B2F06
S1130E906F2F7E2F8F2D902F0DE00E940611298732
S1130EA03A874E87752E862E972E8F87988BAAA108
S1130EB0BBA157963C91579756962C91932F990F17
S1130EC0990BA984BA84C42ED72CE82CF92C082FAA
S1130ED01889492F592F692F792F892F0E94BD0F07
S1130EE00E94BD0F922EA32EB42EC52E69877A8739
S1130EF0782E892EA0E00E94421184F421503109F9
S1130F0041095E4F6F4F7F4F8F4F9F4F922EA32EFD
S1130F10B42EC52E69877A87782E892E292D3A2DED
S1130F204B2D5C2D69857A85872D982D09E10E94CA
S1130F300611A32CB22CC980DB84EC84F42C052D7F
S1130F40162D0E94241129873A874E875F87688B64
S1130F507B8B8C8B9D8BEAA1FBA135892489932FF4
S1130F60990F990B492F592F692F792F892F0E9497
S1130F70BD0FA22EB32EC42E752E862E972E282E8C
S1130F80392EA0E00E94421184F421503109484FC7
S1130F905F4F6F4F7F4F8F4F9F4FA22EB32EC42EA4
S1130FA0752E862E972E282E392E2A2D3B2D4C2D2C
S1130FB0572D682D792D822D932D03E10E94061162
S1130FC0A22EB32EC42ED52EE62EF72E082F192FBF
S1130FD029853A854E855F8568897B898C899D89B9
S1130FE00E942411922EA32EB42EC52ED62EE72EA7
S1130FF0782E892EA0E00E94421184F421503F4FA4
S11310004F4F5F4F6F4F7F4F8F4F9F4F922EA32EA7
S1131010B42EC52ED62EE72E782E892E292D3A2DC4
S11310204B2D5C2D6D2D7E2D872D982D08E00E9473
S11310300611A22EB32EC42ED52EE62EF72EE82F9F
S1131040192FAAA1BBA153963C91539752962C9168
S1131050932F990F990B492F592F692F792F892F86
S113106004E00E94ED100E2F0E942411922EA32E54
S1131070B42EC52ED62EE72E782E892EA0E00E94FF
S113108042115CF4A1E00E942D11922EA32EB42EE5
S1131090C52ED62EE72E782E892E292D3A2D4B2DAE
S11310A05C2D6D2D7E2D872D982D01E00E9406115B
S11310B002E00E94ED10822E932E642E752EB62F20
S11310C0A72FF82FE92F0E94ED10A22EB32EC42EC5
S11310D0D52EE62EF72E082F192F282D392D462D23
S11310E0572D6B2F7A2F8F2F9E2F0E942411822E23
S11310F0932E642E752EB62FA72FF82FE92F02E01A
S11311000E94ED10A22EB32EC42ED52EE62EF72E5D
S1131110082F192F282D392D462D572D6B2F7A2F57
S11311208F2F9E2F0E942411922EA32EB42EC52EF3
S1131130D62EE72E782E892EA0E00E9442115CF470
S1131140AFE70E942D11922EA32EB42EC52ED62EBB
S1131150E72E782E892E292D3A2D4B2D5C2D6D2DC1
S11311607E2D872D982D07E00E940611822F932F44
S1131170A42FB52F803CE6EC9E07EDE2AE07B10547
S113118088F0813CF8ED9F07F7EAAF07B10570F0EE
S113119080EC98EDA7EAB0E009C080EC96ECADE2F3
S11311A0B0E004C080EC96ECADE2B0E0E989FA89E5
S11311B080839183A283B383FD85F2FF55C1AAA1E5
S11311C0BBA191968D909D90AD90BC909497BCE2FC
S11311D09B1AB1E0AB0AB108EE89FF89C084D184BF
S11311E0E284F3840B2EBEE0CC0CDD1CEE1CFF1C51
S11311F0BA95D1F7B02DAAA1BBA15C964D915C9193
S11312005D97052E000C660B770B032E34E1440F1B
S1131210551F661F771F3A95D1F7302DC41AD50A8A
S1131220E60AF70A5E960D90BC91A02DA5019401E3
S11312300E94B50F97018601061B170B280B390B6B
S1131240D901C801905CAF4FBF4F6C017D01BB2336
S113125034F41FEFC10E1FE7D11EE11CF11C0B2E4D
S1131260BFE0F594E794D794C794BA95D1F7B02D1D
S1131270EAA1FBA1A38DB0E0A50194010E94AA0FED
S11312802B013C01992334F4FFEF4F0EF7E05F1E6E
S1131290611C711C032E3BE075946794579447942A
S11312A03A95D1F7302D00E8500E611C711CEAA16B
S11312B0FBA1A0A10A2E000CBB0BA50194010E9466
S11312C0B50F8B019C01992324F401501C4F2F4F1F
S11312D03F4FC901B801052E5AE09595879577953A
S11312E067955A95D1F7502DA30192010E94450F9D
S11312F08B019C01992324F401501C4F2F4F3F4F25
S1131300D901C801072E7AE0B595A79597958795D9
S11313107A95D1F7702D9C01AD01405E5F4FEAA133
S1131320FBA1A18DB28D0E94B50FDC01CB01905EB3
S1131330AF4FBF4F8C019D01BB2324F40150104CCF
S11313402F4F3F4FA9019801012E1EE05595479557
S1131350379527951A95D1F7102DC701B6010E942C
S1131360450F6B017C01DC01CB01FF2024F481508B
S11313709048AF4FBF4FBC01CD01052E5FE095955E
S11313808795779567955A95D1F7502D9B01AC01B8
S11313900E94450F8B019C01992324F401581F4F8F
S11313A02F4F3F4FA9019801689416F8559547951A
S11313B0379527951694D1F7EAA1FBA1A08DB0E04B
S11313C00E94AA0F8B019C01992324F4015F1F4FF3
S11313D02F4F3F4FD901C801689413F8B595A795CD
S11313E0979587951694D1F7C81AD90AEA0AFB0A81
S11313F01AF4C12CD12C7601F1E0CF16D104E1040A
S1131400F9E1FF063CF00F2EC12CD12CE12CF9E1BF
S1131410FF2EF02DD701C601FF2024F48150904FF8
S1131420AF4FBF4F072E7CE0B595A795979587954D
S11314307A95D1F7702D813000E9900701E0A0077B
S1131440B10520F080E090E9A1E0B0E0E989FA89F3
S113145080879187A287B38780E007C08FEF05C09C
S11314608FEF03C08FEF01C080E0A3960FB6F8940E
S1131470DEBF0FBECDBFDF91CF911F910F91FF90C3
S1131480EF90DF90CF90BF90AF909F908F907F9020
S11314906F905F904F903F902F900895DF92EF925E
S11314A0FF920F931F93CF93DF93CDB7DEB764976B
S11314B00FB6F894DEBF0FBECDBFD82E7B018A01D4
S11314C0FE01319688E0DF011D928A95E9F738968E
S11314D08CE0DF011D928A95E9F7CA010E94490058
S11314E0811120C0E114F104F9F0980148E050E0C2
S11314F0BE016F5F7F4F87EF0E946200811115C0AC
S1131500BE01675F7F4FCE0101960E94FF039801E1
S1131510275F3F4FA701BE01675F7F4F8D2D0E945C
S1131520790403C08FEF01C08FEF64960FB6F8946F
S1131530DEBF0FBECDBFDF91CF911F910F91FF9002
S1131540EF90DF90089588E480B9089516BE94EA78
S113155096BF06B607FEFDCF91B1987F983079F417
S113156083B984E886BF06B607FEFDCF91B1987FA4
S1131570983139F081E0903429F480E0089581E0D5
S1131580089580E0089583B984E886BF06B607FE0F
S1131590FDCF91B1987F81E0983209F480E00895FD
S11315A084EC86BF06B607FEFDCF83B1089584E8B8
S11315B086BF06B607FEFDCF83B1089584E986BFD2
S11315C008959BB38F70880F880F880F9778982B96
S11315D09BBBDA98DA9ADA9884E68A95F1F708954B
S11315E0CF93C82F662311F0D89A01C0D898D99800
S11315F08C2F82958F700E94E10A8C2F0E94E10A41
S1131600CF91089560E00E94F00A089561E00E947D
S1131610F00A08958AB38F678ABB85EA9EE0019732
S1131620F1F700C000008BB3887F8BBB80E094E0AF
S11316300197F1F700C0000083E00E94E10A80E016
S113164094E00197F1F700C0000083E00E94E10AF2
S113165080E094E00197F1F700C0000083E00E946D
S1131660E10A80E094E00197F1F700C0000082E015
S11316700E94E10A88E20E94020B1092B50088E001
S11316800E94020B08958091B500982F9460909366
S1131690B5008C600E94020B089581E00E94020B49
S11316A083EF91E00197F1F700C000000895809165
S11316B0B5008D7F8093B50088600E94020B089569
S11316C08CE10E94020B08958091B500982F9260DE
S11316D09093B50086600E94020B0895611161E049
S11316E0E62FF0E0E05AFF4F9081890F80680E9456
S11316F0020B0895CF93DF93EC018881882331F0A6
S113170021960E94060B89918111FBCFDF91CF9125
S11317100895CF93DF93CDB7DEB79E012B5F3F4F84
S1131720F901419151919F0161E170E084EA90E0F7
S11317300E94711184EA90E00E947A0BDF91CF91AC
S113174008958F929F92AF92BF92CF92DF92EF92C1
S1131750FF920E94210E4B015C0120E030E04AE739
S113176053E40E94B00E6B017C0120E030E040E8BD
S11317705FE30E94ED0D88232CF120E03FEF4FE75B
S113178057E4C701B6010E94AB0E1816B4F420E06A
S113179030E040E251E4C501B4010E94B00E0E9461
S11317A0F20D6115710599F029E130E0C901019745
S11317B0F1F761507109D1F70AC0C701B6010E945F
S11317C0F20D02C061E070E0CB010197F1F7FF90E8
S11317D0EF90DF90CF90BF90AF909F908F9008953F
S11317E0EF92FF920F931F93CF93DF93C62F7A014B
S11317F08901880F0E94A60A811114C08C2F0E94AF
S1131800C30A0115110551F0C0E0D0E0F701808151
S11318100E94C30A2196C017D107C1F70E94DE0AAD
S113182080E001C081E0DF91CF911F910F91FF9083
S1131830EF900895CF92DF92EF92FF920F931F9350
S1131840CF93DF93C82FD62F7A018901880F0E9486
S1131850A60A811123C08D2F0E94C30A0E94DE0AAA
S11318608C2F880F81600E94A60A811119C0015033
S1131870110951F0E7016701C00ED11E0E94D00A80
S11318808993CC15DD05D1F7E701C00FD11F0E9464
S1131890D70A88830E94DE0A80E003C081E001C089
S11318A081E0DF91CF911F910F91FF90EF90DF9036
S11318B0CF9008958E9A8D989698089580B385FB5D
S11318C0222720F930E08091B8009091B9002817C0
S11318D0390751F03093B9002093B80081E090E0CB
S11318E0232B21F080E0089580E090E00895CF92CA
S11318F0DF92EF92FF920F931F93CF93DF93EC014C
S11319008B01BC0181E00E94BB03EF81F88568E292
S113191070E080E090E00995AE01B80187E00E9494
S11319204E0A0E944D0B8091B6009091B700813011
S1131930910509F44DC08230910509F477C0892BD3
S113194009F0A2C084E690E09F938F930E94890BD4
S113195061E080E00E946E0BF801648175818681EC
S113196097810F2EF4E6CF2ED12CE12CF12CF02D03
S1131970A70196010E948B0F5F934F933F932F9380
S113198081E790E09F938F930E94890BF801648113
S1131990758186819781A70196010E948B0F9F9381
S11319A08F937F936F9380E790E09F938F930E9430
S11319B0890B85E790E09F938F930E94890B8DB7E5
S11319C09EB740960FB6F8949EBF0FBE8DBF5CC005
S11319D080E890E09F938F930E94890B61E080E000
S11319E00E946E0BF801608171818281938124E6EB
S11319F030E040E050E00E94690F5F934F933F93C3
S1131A002F9381E790E09F938F930E94890B89E83D
S1131A1090E09F938F930E94890B8DB79EB70A968F
S1131A200FB6F8949EBF0FBE8DBF2EC08FE890E016
S1131A309F938F930E94890B61E080E00E946E0B5C
S1131A40F80180859185A285B385072E7AE0B69545
S1131A50A795979587957A95D1F7702DBF93AF93F6
S1131A609F938F9381E790E09F938F930E94890BBC
S1131A7088E990E00E947A0B8DB79EB708960FB65E
S1131A80F8949EBF0FBE8DBF8091B6009091B700B1
S1131A90019663E070E00E94550F9093B700809325
S1131AA0B600DF91CF911F910F91FF90EF90DF90DF
S1131AB0CF9008950F931F93CF93DF93CDB7DEB7E5
S1131AC0EF970FB6F894DEBF0FBECDBF0E945A0C3D
S1131AD00E940A0B0E94600B0E94640B0E94570B29
S1131AE00E944D0B0E94430B0E94A30A87E78A833E
S1131AF081E08B838AE19CE09D838C8380EF9BE073
S1131B009F838E8381EA9BE099878887CE01019623
S1131B100E941B02882389F0282F082E000C330B07
S1131B203F938F938AE990E09F938F930E94890B50
S1131B300F900F900F900F9045C082E089AB85E025
S1131B408FA781E088AB84E08AABBE016F5F7F4FD3
S1131B508FE00E947603182F811119C0969ABE0156
S1131B606C5C7F4FCE0101960E94770C04EC19E067
S1131B700E945E0C892B39F0BE016C5C7F4FCE0154
S1131B8001960E94770CC8010197F1F7F1CFBE01CD
S1131B906C5C7F4FCE0101960E94770C0E944D0B26
S1131BA0812F012E000C990B9F931F938AE990E0DB
S1131BB09F938F930E94890B80E090E00F900F9089
S1131BC00F900F90EF960FB6F894DEBF0FBECDBF07
S1131BD0DF91CF911F910F9108950E945E0E08F43A
S1131BE081E008950E948A0E88F09F5798F0B92FDB
S1131BF09927B751B0F0E1F0660F771F881F991F3E
S1131C001AF0BA95C9F714C0B13091F00E94A40E2D
S1131C10B1E008950C94A40E672F782F8827B85F3D
S1131C2039F0B93FCCF3869577956795B395D9F795
S1131C303EF490958095709561957F4F8F4F9F4F9F
S1131C400895E89409C097FB3EF4909580957095AB
S1131C5061957F4F8F4F9F4F9923A9F0F92F96E9F4
S1131C60BB279395F695879577956795B795F11169
S1131C70F8CFFAF4BB0F11F460FF1BC06F5F7F4F06
S1131C808F4F9F4F16C0882311F096E911C0772318
S1131C9021F09EE8872F762F05C0662371F096E821
S1131CA0862F70E060E02AF09A95660F771F881FF0
S1131CB0DAF7880F9695879597F90895990F000894
S1131CC0550FAA0BE0E8FEEF16161706E807F9070A
S1131CD0C0F012161306E407F50798F0621B730BA5
S1131CE0840B950B39F40A2661F0232B242B252B26
S1131CF021F408950A2609F4A140A6958FEF811DC9
S1131D00811D089557FD9058440F551F59F05F3FAA
S1131D1071F04795880F97FB991F61F09F3F79F009
S1131D2087950895121613061406551FF2CF46958B
S1131D30F1DF08C0161617061806991FF1CF86950D
S1131D407105610508940895E894BB2766277727F1
S1131D50CB0197F908950E945E0E08F48FEF089561
S1131D600E94C30E0C94340F0E94260F38F00E9478
S1131D702D0F20F0952311F00C941D0F0C94230FBC
S1131D8011240C94A50E0E94820E70F3959FC1F34A
S1131D90950F50E0551F629FF001729FBB27F00D15
S1131DA0B11D639FAA27F00DB11DAA1F649F66276A
S1131DB0B00DA11D661F829F2227B00DA11D621FB9
S1131DC0739FB00DA11D621F839FA00D611D221F73
S1131DD0749F3327A00D611D231F849F600D211D57
S1131DE0822F762F6A2F11249F5750409AF0F1F0DA
S1131DF088234AF0EE0FFF1FBB1F661F771F881F43
S1131E0091505040A9F79E3F510580F00C941D0F4E
S1131E100C94A50E5F3FE4F3983ED4F38695779532
S1131E206795B795F795E7959F5FC1F7FE2B880FE8
S1131E30911D9695879597F9089597F99F6780E87E
S1131E4070E060E008959FEF80EC089500240A9408
S1131E501616170618060906089500240A94121681
S1131E601306140605060895092E0394000C11F4B4
S1131E70882352F0BB0F40F4BF2B11F460FF04C061
S1131E806F5F7F4F8F4F9F4F0895DB018F939F9319
S1131E900E94AA0FBF91AF91A29F800D911DA39F95
S1131EA0900DB29F900D1124089597FB072E16F400
S1131EB0009407D077FD09D00E944E1107FC05D08D
S1131EC03EF4909581959F4F0895709561957F4F4D
S1131ED00895A1E21A2EAA1BBB1BFD010DC0AA1F67
S1131EE0BB1FEE1FFF1FA217B307E407F50720F07F
S1131EF0A21BB30BE40BF50B661F771F881F991FFA
S1131F001A9469F760957095809590959B01AC0142
S1131F10BD01CF010895052E97FB1EF400940E9485
S1131F20A20F57FD07D00E94690F07FC03D04EF49F
S1131F300C94A20F50954095309521953F4F4F4FEB
S1131F405F4F089590958095709561957F4F8F4F61
S1131F509F4F08950E946211A59F900DB49F900D0C
S1131F60A49F800D911D11240895B7FF0C94AA0F0E
S1131F700E94AA0F821B930B0895DF93CF931F93A4
S1131F800F939A9DF02D219FF00D8B9DF00D8A9D4E
S1131F90E02DF10D039FF00D029FE00DF11D4E9D0C
S1131FA0E00DF11D5E9DF00D4F9DF00D7F936F933D
S1131FB0BF92AF925F934F93D5010E9462118B0140
S1131FC0AC01D7010E946211EB01E80FF91FD601A1
S1131FD00E940D102F913F91D6010E946211C60FED
S1131FE0D71FE81FF91FAF91BF910E940D102F91C9
S1131FF03F910E946211C60FD71FE81FF91FD60137
S11320000E946211E60FF71F9801BE01CF0111244F
S11320100F911F91CF91DF9108950E946211460F95
S1132020571FC81FD91F08F431960895689401C03A
S1132030E894F92FF12B12F00C944A10A0E0B0E0D0
S1132040E4E2F0E10C94BC10092E059422F40E9401
S1132050A610112392F4F0E80F26FFEFE094F09419
S113206000951095B094C094D094A194BF0ACF0A5F
S1132070DF0AEF0AFF0A0F0B1F0B0E94551007FC23
S11320800E94A610CDB7DEB7ECE00C94D81068948B
S113209001C0E8948F929F92CF93DF930E945510D2
S11320A0DF91CF919F908F90089588249924F40113
S11320B0E401B0E49F93AA279A158B049C04ED05D0
S11320C0FE05CF05D007A10798F4AD2FDC2FCF2F45
S11320D0FE2FE92D982C892E982F872F762F652F88
S11320E0542F432F322F2227B85031F7BF9127C0E6
S11320F01B2EBF91BB27220F331F441F551F661F82
S1132100771F881F991F881C991CEE1FFF1FCC1F67
S1132110DD1FAA1FBB1F8A149B04EC05FD05CE0519
S1132120DF05A007B10748F08A189B08EC09FD09F0
S1132130CE09DF09A00BB10B21601A94E1F62EF44D
S11321409401AF01BE01CD01000C08956095709516
S11321508095909530954095509521953F4F4F4FE0
S11321605F4F6F4F7F4F8F4F9F4F08952F923F9236
S11321704F925F926F927F928F929F92AF92BF9293
S1132180CF92DF92EF92FF920F931F93CF93DF933F
S1132190CDB7DEB7CA1BDB0B0FB6F894DEBF0FBE9C
S11321A0CDBF09942A88398848885F846E847D84E9
S11321B08C849B84AA84B984C884DF80EE80FD80EB
S11321C00C811B81AA81B981CE0FD11D0FB6F89461
S11321D0DEBF0FBECDBFED0108950F93083090F020
S11321E0982F872F762F652F542F432F322F222796
S11321F00850F4CF220F331F441F551F661F771F4B
S1132200881F991F0A95B2F70F91089597FB10F84C
S1132210169400080F93083098F00850232F342F99
S1132220452F562F672F782F892F902DF4CF0594A3
S113223097958795779567955795479537952795FA
S11322400A95AAF70F9108952A0D3B1D4C1D5D1D9B
S11322506E1D7F1D801F911F08950024A7FD00940B
S11322602A0F301D401D501D601D701D801D901DC6
S113227008952A193B094C095D096E097F09800BF1
S1132280910B08950024A7FD00942A1730054005FA
S1132290500560057005800590050895AA1BBB1BB9
S11322A051E107C0AA1FBB1FA617B70710F0A61B52
S11322B0B70B881F991F5A95A9F780959095BC0173
S11322C0CD010895A29FB001B39FC001A39F700DDB
S11322D0811D1124911DB29F700D811D1124911D2A
S11322E00895AEE0B0E0E7E7F1E10C94C4108C018E
S11322F0FA0186E08C831A83098377FF02C060E0C9
S113230070E8CB0101979E838D83A901BF01CE01A3
S113231001960E949D114D815E8157FD0AC02F8157
S11323203885421753070CF49A01F801E20FF31FA2
S113233010822E96E4E00C94E010ABE0B0E0E3EA07
S1132340F1E10C94B6106C017B018A01FC01178247
S11323501682838181FFCCC1CE0101963C01F60136
S11323609381F70193FD859193FF81917F018823E8
S113237009F4BAC1853239F493FD859193FF8191B3
S11323807F01853229F4B60190E00E949413E7CFCF
S1132390912C212C312CFFE1F315D8F08B3279F0FC
S11323A038F4803279F08332A1F4232D20611DC0EA
S11323B08D3261F0803369F4232D216016C0832DA2
S11323C08260382EE32DE4603E2E2AC0F32DF8609F
S11323D01DC037FC2DC020ED280F2A3040F08E326E
S11323E0B9F436FC81C1232D2064322E19C036FE87
S11323F006C08AE0989E200D1124922E11C0EAE0B6
S11324002E9E200D1124222EF32DF0623F2E08C0A3
S11324108C3621F4832D8068382E02C0883641F42E
S1132420F70193FD859193FF81917F018111B3CFD2
S1132430982F9F7D9554933028F40C5F1F4F9FE392
S113244099830DC0833631F0833771F0833509F0F9
S113245059C021C0F801808189830E5F1F4F8824F1
S11324608394912C530113C02801F2E04F0E511CA8
S1132470F801A080B18036FE03C0692D70E002C06F
S11324806FEF7FEFC5010E9489134C018201F32D88
S1132490FF773F2E16C0280122E0420E511CF8019E
S11324A0A080B18036FE03C0692D70E002C06FEFDA
S11324B07FEFC5010E947E134C01F32DF0683F2E7F
S11324C0820133FC1BC0822D90E088169906B0F47B
S11324D0B60180E290E00E9494132A94F4CFF501AF
S11324E037FC859137FE81915F01B60190E00E942F
S11324F0941321102A9421E0821A910881149104E2
S113250071F7E8C0843611F0893641F5F80137FED9
S113251007C060817181828193810C5F1F4F08C065
S113252060817181072E000C880B990B0E5F1F4F81
S1132530F32DFF763F2E97FF09C0909580957095F7
S113254061957F4F8F4F9F4FF0683F2E2AE030E018
S1132550A3010E94D013882E861845C0853731F414
S1132560232D2F7EB22E2AE030E025C0932D997FB3
S1132570B92E8F36C1F018F4883579F0B5C080379C
S113258019F0883721F0B0C0E92FE061BE2EB4FE07
S11325900DC0FB2DF460BF2E09C034FE0AC0292FE4
S11325A02660B22E06C028E030E005C020E130E00D
S11325B002C020E132E0F801B7FE07C060817181FA
S11325C0828193810C5F1F4F06C06081718180E01E
S11325D090E00E5F1F4FA3010E94D013882E86182F
S11325E0FB2DFF773F2E36FE0DC0232D2E7FA22E0E
S11325F0891458F434FE0BC032FC09C0832D8E7E3E
S1132600A82E05C0B82CA32C03C0B82C01C0B92C2B
S1132610A4FE0FC0FE01E80DF11D8081803321F47A
S11326209A2D997EA92E09C0A2FE06C0B394B39434
S113263004C08A2D867809F0B394A3FC11C0A0FECF
S113264006C0B21488F4280C922C9B180EC0B21445
S113265060F4B60180E290E00E949413B394F7CF43
S1132660B21418F42B1802C0982C212CA4FE10C00C
S1132670B60180E390E00E949413A2FE17C0A1FC6F
S113268003C088E790E002C088E590E0B6010CC082
S11326908A2D867859F0A1FE02C08BE201C080E247
S11326A0A7FC8DE2B60190E00E949413891438F4DB
S11326B0B60180E390E00E9494139A94F7CF8A9431
S11326C0F301E80DF11D8081B60190E00E9494139E
S11326D08110F5CF222009F442CEB60180E290E0C9
S11326E00E9494132A94F6CFF6018681978102C042
S11326F08FEF9FEF2B96E2E10C94D210FC01059032
S1132700615070400110D8F7809590958E0F9F1FEF
S11327100895FC016150704001900110D8F7809534
S113272090958E0F9F1F08950F931F93CF93DF9360
S1132730FB01238121FD03C08FEF9FEF2CC022FFFB
S113274016C046815781248135814217530744F4CA
S1132750A081B1819D012F5F3F4F318320838C93F2
S1132760268137812F5F3F4F3783268314C08B0127
S1132770EC01FB010084F185E02D0995892BE1F63C
S1132780D80116968D919C911797019617969C9354
S11327908E931697CE01DF91CF911F910F910895DB
S11327A0FA01AA27283051F1203181F1E8946F937E
S11327B06E7F6E5F7F4F8F4F9F4FAF4FB1E03ED024
S11327C0B4E03CD0670F781F891F9A1FA11D680FC2
S11327D0791F8A1F911DA11D6A0F711D811D911DF5
S11327E0A11D20D009F468943F912AE0269F11246A
S11327F03019305D3193DEF6CF010895462F4770CE
S1132800405D4193B3E00FD0C9F7F6CF462F4F7028
S1132810405D4A3318F0495D31FD4052419302D086
S1132820A9F7EACFB4E0A69597958795779567952C
S1132830BA95C9F700976105710508959B01AC012C
S11328400A2E06945795479537952795BA95C9F753
S1132850620F731F841F951FA01D0895F894FFCF66
S11328600040145454656D7065726174757265002E
S11328702E256C6400202843656C736975732900E8
S11328805072657373757265002028506129004881
S1132890756D69646974790025004572726F723AC6
S10728A02025690082
S9030000FC
